{
  "_format": "hh-sol-artifact-1",
  "contractName": "Multipayment",
  "sourceName": "contracts/Multipayment.sol",
  "abi": [
    {
      "inputs": [],
      "stateMutability": "payable",
      "type": "constructor"
    },
    {
      "anonymous": false,
      "inputs": [
        {
          "indexed": true,
          "internalType": "address",
          "name": "oldOwner",
          "type": "address"
        },
        {
          "indexed": true,
          "internalType": "address",
          "name": "newOwner",
          "type": "address"
        }
      ],
      "name": "OwnerSet",
      "type": "event"
    },
    {
      "inputs": [
        {
          "internalType": "address",
          "name": "newOwner",
          "type": "address"
        }
      ],
      "name": "changeOwner",
      "outputs": [],
      "stateMutability": "nonpayable",
      "type": "function"
    },
    {
      "inputs": [],
      "name": "charge",
      "outputs": [],
      "stateMutability": "payable",
      "type": "function"
    },
    {
      "inputs": [],
      "name": "getOwner",
      "outputs": [
        {
          "internalType": "address",
          "name": "",
          "type": "address"
        }
      ],
      "stateMutability": "view",
      "type": "function"
    },
    {
      "inputs": [
        {
          "internalType": "address payable[]",
          "name": "addrs",
          "type": "address[]"
        },
        {
          "internalType": "uint256[]",
          "name": "amnts",
          "type": "uint256[]"
        }
      ],
      "name": "withdrawls",
      "outputs": [],
      "stateMutability": "payable",
      "type": "function"
    }
  ],
  "bytecode": "0x6080604052336000806101000a81548173ffffffffffffffffffffffffffffffffffffffff021916908373ffffffffffffffffffffffffffffffffffffffff16021790555060008054906101000a900473ffffffffffffffffffffffffffffffffffffffff1673ffffffffffffffffffffffffffffffffffffffff16600073ffffffffffffffffffffffffffffffffffffffff167f342827c97908e5e2f71151c08502a66d44b6f758e3ac2f1de95f02eb95f0a73560405160405180910390a334600181905550610bdf806100d56000396000f3fe60806040526004361061003f5760003560e01c80635516191314610044578063893d20e81461004e578063a6f9dae114610079578063c0722f37146100a2575b600080fd5b61004c6100be565b005b34801561005a57600080fd5b50610063610167565b60405161007091906107d3565b60405180910390f35b34801561008557600080fd5b506100a0600480360381019061009b91906106c6565b610190565b005b6100bc60048036038101906100b791906106ef565b6102db565b005b60008054906101000a900473ffffffffffffffffffffffffffffffffffffffff1673ffffffffffffffffffffffffffffffffffffffff163373ffffffffffffffffffffffffffffffffffffffff161461014c576040517f08c379a0000000000000000000000000000000000000000000000000000000008152600401610143906107ee565b60405180910390fd5b346001600082825461015e91906108dc565b92505081905550565b60008060009054906101000a900473ffffffffffffffffffffffffffffffffffffffff16905090565b60008054906101000a900473ffffffffffffffffffffffffffffffffffffffff1673ffffffffffffffffffffffffffffffffffffffff163373ffffffffffffffffffffffffffffffffffffffff161461021e576040517f08c379a0000000000000000000000000000000000000000000000000000000008152600401610215906107ee565b60405180910390fd5b8073ffffffffffffffffffffffffffffffffffffffff1660008054906101000a900473ffffffffffffffffffffffffffffffffffffffff1673ffffffffffffffffffffffffffffffffffffffff167f342827c97908e5e2f71151c08502a66d44b6f758e3ac2f1de95f02eb95f0a73560405160405180910390a3806000806101000a81548173ffffffffffffffffffffffffffffffffffffffff021916908373ffffffffffffffffffffffffffffffffffffffff16021790555050565b34600160008282546102ed91906108dc565b925050819055508051825114610338576040517f08c379a000000000000000000000000000000000000000000000000000000000815260040161032f9061082e565b60405180910390fd5b600061034382610492565b905080600154101561038a576040517f08c379a00000000000000000000000000000000000000000000000000000000081526004016103819061080e565b60405180910390fd5b60005b835181101561048c578281815181106103cf577f4e487b7100000000000000000000000000000000000000000000000000000000600052603260045260246000fd5b6020026020010151600160008282546103e89190610932565b9250508190555061047984828151811061042b577f4e487b7100000000000000000000000000000000000000000000000000000000600052603260045260246000fd5b602002602001015184838151811061046c577f4e487b7100000000000000000000000000000000000000000000000000000000600052603260045260246000fd5b6020026020010151610510565b8080610484906109e5565b91505061038d565b50505050565b6000806000905060005b8351811015610506578381815181106104de577f4e487b7100000000000000000000000000000000000000000000000000000000600052603260045260246000fd5b6020026020010151826104f191906108dc565b915080806104fe906109e5565b91505061049c565b5080915050919050565b8173ffffffffffffffffffffffffffffffffffffffff166108fc829081150290604051600060405180830381858888f19350505050158015610556573d6000803e3d6000fd5b505050565b600061056e61056984610873565b61084e565b9050808382526020820190508285602086028201111561058d57600080fd5b60005b858110156105bd57816105a38882610648565b845260208401935060208301925050600181019050610590565b5050509392505050565b60006105da6105d58461089f565b61084e565b905080838252602082019050828560208602820111156105f957600080fd5b60005b85811015610629578161060f88826106b1565b8452602084019350602083019250506001810190506105fc565b5050509392505050565b60008135905061064281610b64565b92915050565b60008135905061065781610b7b565b92915050565b600082601f83011261066e57600080fd5b813561067e84826020860161055b565b91505092915050565b600082601f83011261069857600080fd5b81356106a88482602086016105c7565b91505092915050565b6000813590506106c081610b92565b92915050565b6000602082840312156106d857600080fd5b60006106e684828501610633565b91505092915050565b6000806040838503121561070257600080fd5b600083013567ffffffffffffffff81111561071c57600080fd5b6107288582860161065d565b925050602083013567ffffffffffffffff81111561074557600080fd5b61075185828601610687565b9150509250929050565b61076481610966565b82525050565b60006107776013836108cb565b915061078282610a9d565b602082019050919050565b600061079a6025836108cb565b91506107a582610ac6565b604082019050919050565b60006107bd602a836108cb565b91506107c882610b15565b604082019050919050565b60006020820190506107e8600083018461075b565b92915050565b600060208201905081810360008301526108078161076a565b9050919050565b600060208201905081810360008301526108278161078d565b9050919050565b60006020820190508181036000830152610847816107b0565b9050919050565b6000610858610869565b905061086482826109b4565b919050565b6000604051905090565b600067ffffffffffffffff82111561088e5761088d610a5d565b5b602082029050602081019050919050565b600067ffffffffffffffff8211156108ba576108b9610a5d565b5b602082029050602081019050919050565b600082825260208201905092915050565b60006108e7826109aa565b91506108f2836109aa565b9250827fffffffffffffffffffffffffffffffffffffffffffffffffffffffffffffffff0382111561092757610926610a2e565b5b828201905092915050565b600061093d826109aa565b9150610948836109aa565b92508282101561095b5761095a610a2e565b5b828203905092915050565b60006109718261098a565b9050919050565b60006109838261098a565b9050919050565b600073ffffffffffffffffffffffffffffffffffffffff82169050919050565b6000819050919050565b6109bd82610a8c565b810181811067ffffffffffffffff821117156109dc576109db610a5d565b5b80604052505050565b60006109f0826109aa565b91507fffffffffffffffffffffffffffffffffffffffffffffffffffffffffffffffff821415610a2357610a22610a2e565b5b600182019050919050565b7f4e487b7100000000000000000000000000000000000000000000000000000000600052601160045260246000fd5b7f4e487b7100000000000000000000000000000000000000000000000000000000600052604160045260246000fd5b6000601f19601f8301169050919050565b7f43616c6c6572206973206e6f74206f776e657200000000000000000000000000600082015250565b7f5468652076616c7565206973206e6f742073756666696369656e74206f72206560008201527f7863656564000000000000000000000000000000000000000000000000000000602082015250565b7f546865206c656e677468206f662074776f2061727261792073686f756c64206260008201527f65207468652073616d6500000000000000000000000000000000000000000000602082015250565b610b6d81610966565b8114610b7857600080fd5b50565b610b8481610978565b8114610b8f57600080fd5b50565b610b9b816109aa565b8114610ba657600080fd5b5056fea26469706673582212207e6368db6e7633c4495ec3aac73edb2b766738f97df92911b62b85d4150d4c9e64736f6c63430008040033",
  "linkReferences": {},
  "deployedLinkReferences": {}
}